:020000040800F2
:10000000F8C700205D02000889AB000809700008ED
:1000100049A900088B15000861E6000800000000EF
:100020000000000000000000000000009D0100082A
:100030007921000800000000F901000839BA000821
:1000400077020008770200087702000877020008AC
:10005000770200087702000877020008770200089C
:10006000770200087702000877020008770200088C
:10007000F91D000877020008091E00087702000831
:10008000770200087702000877020008ED150008E3
:10009000D1150008770200087702000877020008EF
:1000A0005DBB00088DBB00087702000877020008DE
:1000B000770200087702000877020008770200083C
:1000C000770200087702000877020008770200082C
:1000D00077020008ADC40008BDC40008CDC4000804
:1000E000770200087702000877020008770200080C
:1000F00077020008B5BB0008770200087702000805
:1001000077020008770200087702000877020008EB
:100110003DC0000877020008A5BB00087702000870
:100120007702000877020008191E0008770200080D
:10013000770200087702000877020008D516000849
:10014000C516000877020008770200088DAB00088A
:10015000770200087702000877020008E5C400086B
:10016000770200087702000877020008770200088B
:1001700077020008770200087702000800000000FC
:100180007702000877020008DFF80CD000F0DCFBF3
:100190000048004795FE0008F8C700202C4B19685E
:1001A0000868B0E8F04F80F30988BFF36F8F4FF015
:1001B000000080F3118870470000000008480068C4
:1001C000006880F308884FF0000080F3148862B65E
:1001D00061B6BFF34F8FBFF36F8F00DF00BF00BF6B
:1001E00008ED00E0DFF80C00016841F470010160E7
:1001F000704700BF88ED00E0EFF30980BFF36F8F19
:10020000134B1A681EF0100F08BF20ED108A20E96A
:10021000F04F106009B44FF0500080F31188BFF325
:100220004F8FBFF36F8F10F04FFD4FF0000080F342
:10023000118809BC19680868B0E8F04F1EF0100F6B
:1002400008BFB0EC108A80F30988BFF36F8F704746
:1002500068030020EFF305807047000006488047E0
:1002600006480047FEE7FEE7FEE7FEE7FEE7FEE79B
:10027000FEE7FEE7FEE7FEE721BB00088901000874
:100280002DE9F05F0546002092469B4688460646CB
:10029000814640241BE0284641464746224600F05E
:1002A0009CFA53465A46C01A914110D3114618463B
:1002B000224600F083FA2D1A67EB01084F462246CA
:1002C0000120002100F07AFA17EB00094E41201EB0
:1002D000A4F10104DFDC484631462A464346BDE826
:1002E000F09F40EA01039B0703D009E008C9121FF1
:1002F00008C0042AFAD203E011F8013B00F8013BE0
:10030000521EF9D27047D2B201E000F8012B491E0B
:10031000FBD270470022F6E710B513460A460446A2
:100320001946FFF7F0FF204610BDF0B480EA010245
:10033000D40F4200B2EB410F02D2024608461146EA
:100340004A0042D0C30DDDB2C1F3C752AD1A202D11
:1003500035DAC1F3160141F4000204B15242C5F18D
:10036000200602FA06F12A411044B3EBD05F23D0F5
:10037000C4B1012DA0EBC35009DCF0BC4FF000422A
:1003800002EAC352DBB200F5000000F051BA4000AF
:1003900000F1807000EBC350A0F1807040EAD17092
:1003A000490009E0490841EAC071A0EBC35000F5DB
:1003B0000000400800EBC350F0BC00F030BA6142CE
:1003C000012202EB4101001BF6E7F0BC704781F00F
:1003D0000041AAE780F00040A7E780EA010210B5DB
:1003E00002F00043400022D04A001FD0010E01EB72
:1003F0001261C0F35600C2F3560240F4000042F40A
:100400000002A0FB022000047F39140400D0401C2D
:1004100050EA124001D44000491EC2B20C0604EB5F
:10042000D010401C4008802A02D003E0002010BDFC
:1004300020F00100002900DA0020184310BD30B47C
:1004400080EA010202F0004530F0004221F0004055
:1004500013D090B1C30DD40DC2F31601C0F3160032
:10046000E41A41F4000140F400027D34914201D3CA
:10047000641C00E04900002C02DA30BC0020704708
:100480004FF400000023914201D3891A034340082E
:100490004FEA4101F7D151B1914202D14FF00041F1
:1004A00005E002D24FF0010101E06FF0010103EB22
:1004B000C450284430BC00F0B2B92DE9FE4F80464C
:1004C00081EA0300C00F0C46009021F0004123F0A8
:1004D0000045B8EB0200A94105D2404621469046AE
:1004E0001C460B46024623F00040104347D0270D20
:1004F000C7F30A00C3F30A510290401A0190402842
:100500006BDAC3F3130040F4801B0098924620B1CD
:100510000023D2EB030A63EB0B0B01985946C0F1A1
:100520004002504600F04AF906460D4650465946EC
:10053000019A00F062F910EB08006141002487EA9B
:10054000115284EAE7731A4340D0009A62B3019AC9
:10055000012A4FEA075215DC001B61EB02014FF044
:10056000004202EA0752CDE90042001C41F5801129
:1005700032462B4600F099F903B0BDE8F08F4046B3
:100580002146F9E7001B61EB0201001C41F58013D5
:1005900000185B412018A2F5001747EB030140EA61
:1005A000D570B6196D4111E06D084FEA360645EA7F
:1005B000C0754FEA0752001B61EB0201001C41F5B8
:1005C000801149084FEA30000019514132462B464C
:1005D00003B0BDE8F04F00F059B900980122400087
:1005E0000023D0EB020263EBE073009821464FEA50
:1005F000E074B8EB000061EB0401E9E783F000432D
:100600005BE781F0004158E72DE9FE4F81EA0304E2
:1006100004F0004421F0004100944FF0000B23F05F
:10062000004350EA01045ED052EA03045BD0C3F3F6
:100630000A54C1F30A552C44A4F2F3340194A0FBEC
:100640000254C1F3130141F48011C3F3130343F4C3
:10065000801301FB024400FB034E840A970A44EA1C
:10066000815447EA8357A4FB076802958D0A05FB6E
:1006700007854FEA932C04FB0C542705029D4FEA93
:10068000065847EA1637B5EB08056EEB070C870EE0
:10069000920E47EA811742EA8312A7FB0201B6EBEA
:1006A0000B0164EB00042B0D43EA0C335E1844EBA2
:1006B0001C50DA465146E7FB0201C5F313044FEA2A
:1006C0000B3343EA14534FEA0432019C43EA060316
:1006D000A4F10C040294009CCDE900B400F0E5F80C
:1006E00003B0BDE8F08F00200146F9E7002801DBE8
:1006F000C0F10040002901DBC1F10041814201D875
:100700000120704700207047002801DBC0F1004045
:10071000002901DBC1F10041814201D20120704773
:1007200000207047002801DBC0F10040002901DBF8
:10073000C1F10041814201D901207047002070477A
:10074000002801DBC0F10040002901DBC1F10041BC
:10075000814201D101207047002070470EB5C10FC2
:1007600080EAE0700844CA07002140F233438DE874
:100770000E000A460B4600F098F803B000BD70B5B5
:10078000C1F30A5201F000450024C1F3130140F205
:10079000FF3341F480119A4201DA002070BD40F22B
:1007A00033439A42A2F2334203DC524200F015F87E
:1007B00000E090402C43F1D0404270BD202A04DB81
:1007C000203A00FA02F1002070479140C2F1200364
:1007D00020FA03F3194390407047202A04DB203AA3
:1007E00021FA02F00021704721FA02F3D040C2F151
:1007F00020029140084319467047202A06DBCB1798
:10080000203A41FA02F043EAE07306E041FA02F3CB
:10081000D040C2F120029140084319467047002998
:10082000A8BF7047401C490008BF20F00100704776
:1008300010B4B0FA80FC00FA0CF050EA010404BFD6
:1008400010BC704749B1CCF1200421FA04F411FA2C
:100850000CF118BF012121430843A3EB0C01CB1D70
:100860004FEA00614FEA102042BF002010BC7047E1
:1008700000EBC35010440029A4BF10BC7047401CBB
:10088000490008BF20F0010010BC704710B5141ECD
:1008900073F1000408DA401C41F1000192185B4139
:1008A0001A4301D120F0010010BD2DE9F04D924610
:1008B0009B4611B1B1FA81F202E0B0FA80F2203227
:1008C0009046FFF77BFF04460F4640EA0A0041EAE4
:1008D0000B0153465A46084313D0114653EA010010
:1008E00019D0C8F140025046FFF777FF05460E4683
:1008F000504659464246FFF761FF084305D00120A4
:1009000004E020463946BDE8F08D0020054346EA64
:10091000E0762C4337430A986305E40AA0EB08000D
:100920000022FD0A44EA47540A3002D5002001465D
:10093000E9E7010510196941DDE908450019694138
:10094000BDE8F04DA2E70000064C074D06E0E06868
:1009500040F0010394E8070098471034AC42F6D306
:10096000FFF716FC7C1D01089C1D010870B58C1852
:1009700010F8015B15F0070301D110F8013B2A11B3
:1009800006D110F8012B03E010F8016B01F8016BA0
:100990005B1EF9D12B0705D40023521E0DD401F89C
:1009A000013BFAE710F8013BCB1A921C03E013F865
:1009B000015B01F8015B521EF9D5A142D8D300209A
:1009C00070BD00002DE9F04103880F88BB423FD184
:1009D00047884E88B7423BD11688B34238D15688F3
:1009E000B74235D1466854684D6807FB03F80020CC
:1009F000B0EB980F1BD04FEA980047423068296847
:100A0000FFF793FC206070686968FFF78EFC6060F8
:100A1000B068A968FFF789FCA060F068E968FFF793
:100A200084FCE0601034103510360137E6D118F040
:100A300003000BD0474200BF56F8040B55F8041BC7
:100A4000FFF773FC44F8040B0137F5D1002000E0F8
:100A5000FD2040B2BDE8F0814360428001807047D4
:100A60002DE9F04F93B0B0F802A0B0F800B0D34534
:100A700040F05D810A88FD25934540F059814B88FF
:100A80009A4240F055814768BBF1000F00F0398170
:100A90004C686FF00300019700274FF07E585E46C8
:100AA000CDF820A000EB8B0920460494BBEB060098
:100AB00008D0B9002046FFF72DFC00200130043497
:100AC0008742FBD104F1040A751EC4F800800FD0E0
:100AD000A9EB87015046FFF71DFC0120544600BFDB
:100AE000013004348642FBD10137002D2E46DDD182
:100AF000019FDDF820A0BBF1000F00F0028104206F
:100B000007EB8A023C1DABF101080021CDF824A0BF
:100B1000CDF81CB000EB8A000290CAF100000B90E7
:100B20004FEA8A00129000BF594580F0058101FB11
:100B30000AF0109104990597002593460392CDF889
:100B4000188057F8209001EB800107EB80004F469A
:100B50000E910D9008E000BF1298DBF80070A8F12C
:100B6000010835465844834638460021FFF7BEFD4C
:100B700040B938462946FFF7D5FD00283E4608D043
:100B800008E000BF87F0004628463146FFF7BCFD6D
:100B900000B92E46B8F1000FDED130460021FFF734
:100BA000CFFD002840F0C88029F000403146FFF713
:100BB000C7FDDDE9062140B91098C043401804D0B4
:100BC000002000BF01308242FCD148460021FFF7DF
:100BD000B7FD099E002840F0AF800D994FF07E5080
:100BE0000F9408601098AAEB0001012908460C91A7
:100BF0000BD00F9D012400BF28684946FFF71FFC5A
:100C0000013445F8040BA642F6D10B9C0E9D00BFA3
:100C100028684946FFF713FC45F8040B0134F7D167
:100C20000C98DDF81C804FF0000B01380A90DDE9CC
:100C30000465DDE90F4100BF8B4505D10C9806EB3B
:100C40008A0605EB80053CE00D98D5F80090016818
:100C50004846FFF7C2FB01464846FFF7B8FB45F898
:100C6000040B0A98E0B1CDF84480DDF82480012718
:100C70004FF0000A54F80A104846FFF7AEFB014651
:100C800055F80A00FFF7A3FB013745F80A000AF1FF
:100C9000040AB845EED15544DDF820A0DDF84480C3
:100CA0000B9F0E9C54F8041B4846FFF796FB014629
:100CB0003068FFF78CFB46F8040B0137F2D1DDE911
:100CC0000F4105EB81050BF1010BB8F10108B3D120
:100CD0000298039ADDF81880059FDDF81CB00131F9
:100CE000044402440998A8F1010804370138099026
:100CF0007FF41AAF484600210025FFF721FD019F30
:100D0000B0B10AFB0BF50024002645B1386800217C
:100D1000FFF716FD18B101360437AE42F6D3AE42E6
:100D200008BF6FF00404204613B0BDE8F08FFD2526
:100D300068B213B0BDE8F08FFB25F9E72DE9F04F5D
:100D400091B047880B889F4240F0AF800688138897
:100D50009E4240F0AA804D8853889D4240F0A58075
:100D600052684FF0000949684FEA850805960497D4
:100D7000039502924268A9EB97000191079027F032
:100D8000030002EB80000C920990B8080B906843B6
:100D900001EB00102946009007F003000A90404242
:100DA000069000BF029800EB890ADDE9000BCDF840
:100DB000209010900B980F91002847D0CDF838A0C4
:100DC000CDF834B0D946DDF81CA0DDF830B00024F1
:100DD0009BE8C100D9F80010DBF80C50FFF7FDFAD2
:100DE00001462046FFF7A1FA59F80810044630469C
:100DF000FFF7F3FA01462046FFF797FA09EB0806DA
:100E00000446384656F80810FFF7E7FA0146204630
:100E1000FFF78BFA46440446284656F80810FFF7B9
:100E2000DCFA01462046FFF780FA044606EB08008C
:100E30000BF1100B1AF1010A00EB0809C8D1109D43
:100E4000DDE90896DDE90DBA03E000BF0C9E002441
:100E50005D460A9868B1069F56F8040B2968FFF7AB
:100E6000BCFA01462046FFF760FA044645440137C4
:100E7000F2D110980F994AF8044B0BF1040B04308F
:100E80000139109096D10498099901EB80010991DC
:100E90000C9901EB800105980C9103990138894464
:100EA00005907FF47FAF002000E0FD2040B211B03C
:100EB000BDE8F08F2DE9F04103880F88BB423FD198
:100EC00047884E88B7423BD11688B34238D15688FE
:100ED000B74235D1466854684D6807FB03F80020D7
:100EE000B0EB980F1BD04FEA980047423068296852
:100EF000FFF76DFA206070686968FFF768FA606054
:100F0000B068A968FFF763FAA060F068E968FFF7C6
:100F10005EFAE0601034103510360137E6D118F073
:100F200003000BD0474200BF56F8040B55F8041BD2
:100F3000FFF74DFA44F8040B0137F5D1002000E02B
:100F4000FD2040B2BDE8F0812DE9F04F82B0B0F84D
:100F500000E04B889E454BD144880B889C4247D18A
:100F600000234E6804F0030B40684FEA0E184FEA66
:100F7000940AA3EB9401CBF1000901914FEA8E0191
:100F800032460096BAF1000F1CD0019F344600BFD4
:100F90002546046801372C6044686C5005EB010459
:100FA000D0F808C044F801C00C44C26800F1100039
:100FB000625004EB010202EB0104E9D105EB0807E2
:100FC00003E000BF009A02EB8307BBF1000F07D0DC
:100FD0004D4600BF50F8042B01353A600F44F9D15B
:100FE0000436BEF1010E03F10103CBD1002000E075
:100FF000FD2040B202B0BDE8F08F07F0E9FF00BF6E
:1010000008F022F801200EF0CBFFF9E710B501221D
:101010009102024803F0EEFA10BD00000004024005
:1010200010B500224FF48061014803F0E3FA10BDCF
:101030000004024010B50122D102024803F0DAFA9E
:1010400010BD00000004024010B500224FF4006102
:10105000014803F0CFFA10BD0004024010B5044669
:10106000FFF7DEFF922000F0C7F906229549122013
:1010700000F0A2F9FFF7CAFF92484078000200B2E0
:10108000904909780843904908800846B0F9000063
:1010900000EE100AB8EEC00A8C48D0ED000A20EE2F
:1010A000200AD4ED080A20EE200A84ED000A8548C3
:1010B000C078000200B283498978084382490880D9
:1010C0000846B0F9000000EE100AB8EEC00A7F48EA
:1010D000D0ED000A20EE200AD4ED080A20EE200A06
:1010E00084ED010A77484079000200B27549097918
:1010F0000843754908800846B0F9000000EE100A60
:10110000B8EEC00A7148D0ED000A20EE200AD4EDF6
:10111000080A20EE200A84ED020AFFF795FF082254
:101120006849002000F048F9FFF784FF654800781F
:101130000F284FD166480078F0B36248C0780002AB
:1011400000B26049897808435F49088094ED090A34
:101150000846B0F9000000EE900AF8EEE00A5D489B
:1011600090ED001A10EE810A84ED030A554840798B
:10117000000200B25349097908435349088094EDAD
:101180000A0A0846B0F9000000EE900AF8EEE00AFC
:10119000504890ED001A10EE810A84ED040A494887
:1011A000C079000200B2474989790843464908805E
:1011B00094ED0B0A084600E00DE0B0F9000000EEE7
:1011C000900AF8EEE00A434890ED001A10EE810A0A
:1011D00084ED050A44E03B48C078000200B239497A
:1011E00089780843384908800846B0F9000000EEC5
:1011F000100AB8EEC00A3748D0ED000A20EE200AE7
:1012000084ED030A2F484079000200B22D49097984
:1012100008432D4908800846B0F9000000EE100A86
:10122000B8EEC00A2B48D0ED000A20EE200A84ED6B
:10123000040A2448C079000200B22249897908438F
:10124000214908800846B0F9000000EE100AB8EE07
:10125000C00A2048D0ED000A20EE200A84ED050ADD
:10126000FFF7DEFEA22000F0C7F802221549222077
:1012700000F0A2F8FFF7CAFE12480078C00011493A
:10128000497840EA6110104908800846B0F900002A
:10129000B0F5806F05DB08460088A0F5006000B25D
:1012A00008800948B0F9000000EE100AF8EEC00A04
:1012B000B4EE001AB3EE070A00EE810A84ED070AC5
:1012C00010BD00009E040020A60400206004002041
:1012D000700400206404002070B505460E462948BD
:1012E00005600020284908700EF088F92649097821
:1012F0000843254908700EF037FA23490978084356
:10130000214908701EB1214800F0B0FA1CE09FEDA1
:10131000200A1E4880ED090A9FED1E0A80ED0A0A88
:101320009FED1D0A80ED0B0A9FED1C0A80ED0C0A53
:1013300090ED0C0ADFED1A0A80EE801A80ED081A93
:101340009FED180A80ED060A002416E0C4EBC401E4
:10135000154A02EB81004FF448719FED140A0EF01C
:101360002FF904EB4401124A02EB81009FED110AB0
:10137000C8210FF041FA601CC4B2032CE6DB02481E
:10138000007870BDA80400206A040020B484002006
:10139000DAB9DDB9FEC6E63A77193B39C7B9184163
:1013A000C3F51C4100002042608400200000484238
:1013B0003C8400206F12033A70B506460C46154671
:1013C00046F0800000F018F806E0552000F014F810
:1013D0002070641C681EC5B2002DF6D170BD70B5BA
:1013E00004460D4644F0800000F006F8552000F059
:1013F00003F8287070BD000001B582B04FF47A7018
:10140000012301AA02A900900348006804F0FAFB36
:101410009DF804000EBD0000A804002070B505462C
:101420000C462846FFF7E8FF2046FFF7E5FF70BDB2
:10143000D2ED020A92ED021AB6EE000A00EEC10ADF
:10144000D2ED030A92ED031A00EEC10AD0ED000AB4
:1014500020EE200AD2ED010A92ED021A60EE810A16
:1014600092ED001AD2ED031A41EE610A90ED011AD5
:1014700000EE810AD2ED010A92ED031A60EE810AB4
:1014800092ED001AD2ED021A41EE210A90ED021AF5
:1014900000EE810AF0EE000A20EE200A81ED000A3B
:1014A00092ED010AD2ED020A20EE200AD2ED000AE6
:1014B00092ED031A00EE810AD0ED000A60EE200AD8
:1014C00092ED011AD2ED011AB6EE000A01EE610AA0
:1014D000D2ED031A92ED032AB0EE401A01EEC21AC1
:1014E000D0ED011AB0EE600A01EE210AD2ED020A37
:1014F00092ED031A60EE810A92ED001AD2ED011A04
:1015000041EE610A90ED021A00EE810AF0EE000A47
:1015100020EE200A81ED010A92ED010AD2ED030AC4
:1015200020EE200AD2ED000A92ED021A00EEC10A66
:10153000D0ED000A20EE200AD2ED020A92ED031A45
:1015400060EE810A92ED001AD2ED011A41EE210AF5
:1015500090ED011A00EE810A92ED011AD2ED011A06
:10156000F6EE000A41EE610A92ED021AD2ED021A7D
:1015700041EE610A90ED021A00EE810AF0EE000AD7
:1015800020EE200A81ED020A704700BFFEE700004E
:1015900000B58BB000200690079001200890002035
:1015A0000190029003900490059001200990002082
:1015B0000A9001A9054801F053F9044801F0BFFE63
:1015C0000321024801F0B8F80BB000BDBC150020A3
:1015D00010B50448808B401C02498883024801F002
:1015E000A3FA10BDA0160020BC15002010B50448B9
:1015F000808B401C02498883024801F095FA10BD97
:10160000A0160020BC15002038B505460C4615482C
:1016100005600020134948608860C86008200861A0
:101620006B462246104801F099F81049087010489E
:10163000007888B10846007820B99FED0E0A0E4860
:1016400080ED000A0948007801280AD19FED0B0AB5
:10165000094880ED000A04E09FED080A064880ED85
:10166000000A38BD0C160020BC150020C402002062
:10167000DE0200200050C347C80200200000000026
:1016800000B58BB00F200690002007900120089035
:101690000020019002900390049005900120099091
:1016A0000F200A9001A9064801F0DAF8044801F079
:1016B00046FE0321024801F03FF80BB000BD0000D8
:1016C000E415002010B5024801F02EFA10BD00000C
:1016D000E415002010B50548C08C401C81B20348B9
:1016E000C184034801F020FA10BD0000A0160020BC
:1016F000E415002038B504460D4619480460002062
:10170000174948608860C8600820086100BF154814
:1017100001F0F1F90028FAD06B462A461049114829
:1017200001F01CF8104908701048007888B108468C
:10173000007820B99FED0E0A0E4880ED000A0A4895
:10174000007801280AD19FED0C0A0A4880ED000AB2
:1017500004E09FED090A074880ED000A38BD00004B
:1017600024160020E4150020C5020020DE0200201F
:101770000050C347C8020020000000000346042BAD
:1017800015D007DC7BB1012B0ED0022B0DD0032B23
:1017900012D10BE0202B0BD0212B0AD0222B09D009
:1017A000232B09D107E008E007E006E005E004E0AC
:1017B00003E002E001E000E000BF00BF002070474E
:1017C0000020704710B50022044905480BF0A4F82A
:1017D000044903480BF092F8002010BD9038002017
:1017E000C02300209030002070B505460C462946E5
:1017F0000A482268FEF775FD2088094908800846D6
:101800000188064809F0CEFA294606480BF076F81A
:1018100004480BF043F8002070BD0000C82F0020E2
:1018200040030020C023002010B503460C460021D1
:10183000084610BD2DE9F04104460D4600260A4831
:10184000D0F8BC72D7F8140210B10120BDE8F081C5
:101850002A46214604480BF05FF803480BF0F4F8E1
:1018600006463046F2E70000C023002070B52DED9B
:10187000048B88B0044600200690079000F0B6FB69
:10188000FE4880ED000A00BF00F0B0FBFB48D0ED41
:10189000000A30EE600AF2EE040AB4EEE00AF1EE5D
:1018A00010FA14DD9FEDF60A84ED090A9FEDF50AA2
:1018B00084ED0A0A9FEDF40A84ED0B0A9FEDF30A0A
:1018C00084ED0C0A9FEDF20A84ED060A57E29FEDC3
:1018D000F10A00F047FB9FEDF00A84ED0C0A9FED42
:1018E000EE0A84ED090A9FEDEC0A84ED0A0A9FEDE9
:1018F000EA0A84ED0B0A002673E1FFF791FB9220C0
:10190000FFF77AFD062206A91220FFF755FDFFF723
:101910007DFB9DF81900000200B29DF8181040EA06
:10192000010500EE105AB8EEC00ADC48D0ED000AFE
:1019300020EE200A84ED000A9DF81B00000200B290
:101940009DF81A1040EA010500EE105AB8EEC00AE0
:10195000D248D0ED000A20EE200A84ED010A9DF85D
:101960001D00000200B29DF81C1040EA010500EEC7
:10197000105AB8EEC00AC948D0ED000A20EE200A7D
:1019800084ED020AD4ED000A60EEA00A94ED011A7B
:10199000D4ED011A41EE210A94ED021AD4ED021A97
:1019A00041EE210AB0EE600A0DF058FCB0EE408A1C
:1019B00094ED0C0A30EE080A84ED0C0AFFF744FBA4
:1019C000082206A90020FFF7F7FCFFF733FB9DF87C
:1019D00018000F2850D19DF81B00000200B29DF89E
:1019E0001A1040EA010500EE105AB8EEC00AAC48E1
:1019F000D0ED000A20EE200A84ED030A94ED090AD6
:101A0000D4ED030A30EE200A84ED090A9DF81D008A
:101A1000000200B29DF81C1040EA010500EE105AC9
:101A2000B8EEC00A9E48D0ED000A20EE200A84EDF0
:101A3000040A94ED0A0AD4ED040A30EE200A84ED7B
:101A40000A0A9DF81F00000200B29DF81E1040EA2D
:101A5000010500EE105AB8EEC00A9148D0ED000A18
:101A600020EE200A84ED050A94ED0B0AD4ED050A58
:101A700030EE200A84ED0B0A06BBF0EE488AB0EE89
:101A8000489A002017E004F10C0101EB800191ED70
:101A9000000A03A901EB800181ED000A04F10C01A9
:101AA00001EB800191ED000A694601EB800181EDB7
:101AB000000A411CC8B20328E5DB49E0B4EEE88A1D
:101AC000F1EE10FA01DDF0EE488AB4EEC98AF1EECB
:101AD00010FA01D2B0EE489A002037E004F10C0170
:101AE00001EB800191ED000A03A901EB8001D1ED2A
:101AF000000AB4EEE00AF1EE10FA0ADD04F10C017E
:101B000001EB800191ED000A03A901EB800181ED59
:101B1000000A04F10C0101EB800191ED000A694615
:101B200001EB8001D1ED000AB4EEE00AF1EE10FA0B
:101B30000AD204F10C0101EB800191ED000A694623
:101B400001EB800181ED000A411CC8B20328C5DB0E
:101B500038EEC90A534880ED000A002012E003A9BC
:101B600001EB800191ED000A694601EB8001D1EDA6
:101B7000000A30EE600A4C4901EB800181ED000A59
:101B8000411CC8B20328EADB464890ED000AF7EE94
:101B9000000AB4EEE00AF1EE10FA1BDC424890EDC8
:101BA000000ADFED420AB4EEE00AF1EE10FA11DCB1
:101BB00090ED010ADFED3D0AB4EEE00AF1EE10FA15
:101BC00008DC90ED020ADFED390AB4EEE00AF1EE2E
:101BD00010FA00DD0AE09FED360A00F0C3F9701C30
:101BE00086B2344800888642FFF687AE00BFD4ED47
:101BF0000C0A3048008800EE100AB8EE400A80EE69
:101C0000801A84ED0C1A002015E004F1240101EB88
:101C10008001D1ED000A2749098800EE101AB8EEBC
:101C2000400A80EE801A04F1240101EB800181ED6D
:101C3000001A411CC8B20328E7DBFFF7F1F9A22024
:101C4000FFF7DAFB022206A92220FFF7B5FBFFF718
:101C5000DDF99DF81800C0009DF8191040EA6115E3
:101C6000B5F5806F02DBA5F5006005B200EE105AF5
:101C7000F8EEC00AB4EE001A1EE00000980400203E
:101C8000DAB9DDB9FEC6E63A77193B39C7B918416A
:101C9000000020420AD7A33B00000000600400209F
:101CA000640400206C040020308400209A99193EBE
:101CB0006F12033A9C040020B3EE070A00EE810A7B
:101CC00084ED060A34480088401C00B2324908807E
:101CD000324890ED000AF7EE000AB4EEE00AF1EEA9
:101CE00010FA3FF7D1AD94ED0C0ADFED2D0A30EE7E
:101CF000600AB0EEC00AF6EE000AB4EEE00AF1EEB9
:101D000010FAEEDC274890ED000A5FED180AB4EEF9
:101D1000E00AF1EE10FAE4DC90ED010A5FED1D0A35
:101D2000B4EEE00AF1EE10FADBDC90ED020A5FEDB2
:101D3000210AB4EEE00AF1EE10FAD2DC94ED090AC1
:101D4000B0EEC00ADFED180AB4EEE00AF1EE10FAC8
:101D5000C7DC94ED0A0AB0EEC00ADFED130AB4EE58
:101D6000E00AF1EE10FABCDC94ED0B0AB0EEC00A0A
:101D7000DFED0D0AB4EEE00AF1EE10FAB1DC00BFBF
:101D800094ED0C0ADFED090A80EE801A84ED081A42
:101D900008B0BDEC048B70BD720400206C04002000
:101DA000CDCC1C41308400200AD7233CC3F51C4114
:101DB00000BF0A200EF0F4F8FBE710B543685B1A89
:101DC0005442A34203DA03685B1E036006E04368E3
:101DD0005B1A934202DD03685B1C0360416010BD27
:101DE00003468B4201DA08467047934201DD1046F4
:101DF000FAE71846F8E7000010B5024802F00EF9BD
:101E000010BD00000023002010B5024802F006F9C2
:101E100010BD00006023002010B5024802F0FEF85B
:101E200010BD0000A022002001680A4BCAB2103A7F
:101E3000A3FB02321209084B9B5CC365032A04D939
:101E40006FF30901091D816502E06FF309018165E6
:101E5000806D7047ABAAAAAA4C1C0108014600205D
:101E60008A6A8B69002B0FD0B3F5005F1DD08AB34F
:101E7000012A30D0022A2ED0032A04D1C96A11F0D7
:101E8000807F00D0012070471AB1012A07D0022AB2
:101E9000F9D1C96A11F0807FF5D001207047C96A75
:101EA000B1F1C07FFAD1012070475AB1012A0BD09D
:101EB000022A07D0032AF7D1C96AB1F1C07FF3D152
:101EC0000120704701207047C96A11F0807FFAD065
:101ED00001207047FFE701207047D0F800C0CCF820
:101EE00004308368402B04D0036899600068C260A6
:101EF000704703689A600068C160704710B4D0F8FA
:101F000000C0DCF8004024F48024CCF80040D0F875
:101F100000C0CCF804308368402B05D0036899607A
:101F20000068C26010BC704703689A600068C160B6
:101F300010BC704708B508484068009007490098F1
:101F40000968884204D206480068401C04490860B9
:101F500002490098086008BD001000E0C804002095
:101F6000C40400200C494868F0EE400A00BF0A494A
:101F70004968091A01EE101AF8EE411A074991ED65
:101F8000001AB8EE411A20EE811AF4EEC11AF1EEF1
:101F900010FAECD370470000001000E0B8040020F5
:101FA00010B52DED028B82B004460E4840680190BA
:101FB00020680199081A00EE100AF8EE400A0A4853
:101FC00090ED000AB8EE400A80EE801AB0EE418A29
:101FD00001982060FFF7AEFFB0EE480A02B0BDECFA
:101FE000028B10BD001000E0B804002010B52DEDEC
:101FF000028B00F059F80F4890ED000AB8EE400A45
:10200000808800EE900AF8EE600A9FED0B1A00EE51
:10201000810A0848C08800EE900AF8EE600A9FED39
:10202000071A00EE810AB0EE408AB0EE480ABDEC15
:10203000028B10BDB00400206F12833ABD37863585
:102040001249096841F08071104A11600021104A5C
:1020500051601146096841F0010111600D49414389
:102060000D4A1160114609684FF47A72B1FBF2F122
:102070000A4A116008490968064AB1FBF2F1084AA8
:1020800011600021074A116070470000FCED00E07C
:10209000001000E040420F00B8040020BC04002003
:1020A000C0040020C404002038B5294840680090CE
:1020B000FFF740FF274800684FF0FF31A0FB0131D8
:1020C0000098181841F10001234A03C22348002355
:1020D0002149026803C9FEF7D3F8214A03C2204808
:1020E0000CC81E4800680024A2FB001503FB00502A
:1020F00002FB04021848D0E90030591A60EB0200D4
:10210000184AC2E9001016480068174908601748C5
:1021100000231449026803C9FEF7B2F81249888007
:10212000084680881149096841430E48D0E90030CB
:10213000591A60F100000E4AC2E900100D48002350
:102140000B49026803C9FEF79BF80749C88038BDF0
:10215000001000E0C4040020D0040020B8040020D7
:10216000D8040020E0040020B0040020BC040020BB
:10217000E8040020C0040020704700001CB50020C7
:102180000090019000F064FABDEEC00A10EE100A53
:1021900000B22B4908802B4890ED000ADFED2A0A97
:1021A00020EE200ABDEEC00A10EE100A00B2274948
:1021B0000880274890ED000ADFED230A20EE200A70
:1021C000BDEEC00A10EE100A00B222490880224873
:1021D00090ED000ADFED1C0A20EE200ABDEEC00AD9
:1021E00010EE100A00B21D49088015480088000A48
:1021F0008DF80000124800788DF80100134800881F
:10220000000A8DF80200114800788DF8030011488B
:102210000088000A8DF804000E4800788DF805004B
:1022200008460088000A8DF80600084600788DF8F8
:102230000700694640F20120FFF75CFA1CBD000070
:10224000100000200802002000401C46140000205E
:102250000C020020160000201002002018000020B0
:102260001CB500200090019007F0A8F86149088093
:10227000022007F0A9F86049088007F097F8DFED21
:102280005F0A20EE200ABCEEC00A10EE100A5C497C
:10229000088007F0F5F85B4908705B48C07E5B4931
:1022A00008805948407E5A4908805748007E59495D
:1022B000088007F0F1F85849087054480088012850
:1022C00009D1012300221146544800780DF0E4FAA8
:1022D0005249087008E000231A4619464F48007812
:1022E0000DF0DAFA4D49087049480088012809D1F3
:1022F00001231A461946494800780DF0CDFA47499E
:10230000087008E0002301221146444800780DF0CF
:10231000C3FA424908703F480088012809D10123C7
:10232000022211463D4800780DF0B6FA3B4908708C
:1023300008E0002302221146384800780DF0ACFA7C
:102340003649087034480078042809D10123032253
:102350001146324800780DF09FFA3049087008E0C5
:102360000023032211462D4800780DF095FA2B49E1
:10237000087007F041F80A2809DD012304221146FC
:10238000264800780DF088FA2449087008E00023F8
:1023900004221146214800780DF07EFA1F4908708A
:1023A0001448008800128DF80000124800788DF85B
:1023B00001001148008800128DF802000E480078D4
:1023C0008DF803000E48008800128DF804000C48B8
:1023D00000788DF80500114800788DF8060009484E
:1023E00000788DF80700694640F20220FFF782F975
:1023F0001CBD000020000020220000200000C84278
:102400002400002013000020D00D00201A0000201E
:102410001C0000201E0000201200002026000020CA
:10242000D2ED020A92ED021AB6EE000A00EEC10ADF
:10243000D2ED030A92ED031A00EEC10AD0ED000AB4
:1024400020EE200AD2ED010A92ED021A60EE810A16
:1024500092ED001AD2ED031A41EE210A90ED011A15
:1024600000EE810AD2ED010A92ED031A60EE810AB4
:1024700092ED001AD2ED021A41EE610A90ED021AB5
:1024800000EE810AF0EE000A20EE200A81ED000A3B
:1024900092ED010AD2ED020A20EE200AD2ED000AE6
:1024A00092ED031A00EEC10AD0ED000A60EE200A98
:1024B00092ED011AD2ED011AB6EE000A01EE610AA0
:1024C000D2ED031A92ED032AB0EE401A01EEC21AC1
:1024D000D0ED011AB0EE600A01EE210AD2ED020A37
:1024E00092ED031A60EE810A92ED001AD2ED011A04
:1024F00041EE210A90ED021A00EE810AF0EE000A88
:1025000020EE200A81ED010A92ED010AD2ED030AC4
:1025100020EE200AD2ED000A92ED021A00EE810AA6
:10252000D0ED000A20EE200AD2ED020A92ED031A45
:1025300060EE810A92ED001AD2ED011A41EE610AB5
:1025400090ED011A00EE810A92ED011AD2ED011A06
:10255000F6EE000A41EE610A92ED021AD2ED021A7D
:1025600041EE610A90ED021A00EE810AF0EE000AD7
:1025700020EE200A81ED020A7047704710B52E4800
:10258000007848B32D48007A012804D0022810D0E2
:10259000032820D112E02948407A022804D0284894
:1025A00000882849088003E02548008825490880DC
:1025B00011E023480088234908800CE01F48407A36
:1025C000012804D11E4800881E49088002E000202E
:1025D0001C49088000BF02E000201A490880194801
:1025E0000088404200B2184988821648008801B22B
:1025F0001548A0F80811154A11880246928A90B22F
:10260000042208F0B4FB00B20F4988820F4A5188B7
:102610000D4AB2F8082190B2042208F0A8FB01B2DA
:102620000948A0F80811808A084908800648B0F8CF
:102630000801488010BD0000DE0200203C0600209A
:102640008A010020AE010020D80B0020B00100203C
:10265000254890ED7E0AB8EEC00A2448D0ED000A65
:1026600030EE600A224880ED000A90ED000ADFEDAE
:10267000210AB4EEE00AF1EE10FA02DD4FF4005048
:1026800000E0002000EE100AB8EEC00A1848D0EDB5
:10269000000A30EEC00A80ED000A90ED000ADFED7E
:1026A000160AB4EEE00AF1EE10FA02D24FF400502E
:1026B00000E0002000EE100AB8EEC00A0C48D0ED91
:1026C000000A30EE200A80ED000A90ED000ADFEDEE
:1026D0000B0A20EE200ADFED0A0A80EE201A80EDB8
:1026E000001A90ED000A704770060020B802002022
:1026F000B002002000008045000080C50000B44307
:102700000000004670B50A480468001D0568001DF9
:102710000668344454B108220649204606F026FED5
:10272000042204491031284606F020FE70BD000046
:10273000107AFF1F2603002090F82020012A07D0DE
:10274000022A05D0416A41F480214162012070478C
:1027500000684269114341610020704770B490F8ED
:102760002040D0F800C0DCF808C0012C08D0022CB2
:1027700006D0416A41F48021416270BC012070475B
:102780000CF080640CF000652C430CF080552C4359
:102790005FD0CCF3016CBCF1020F06D9416A41F461
:1027A0000001416270BC01207047012404FA0CF45E
:1027B0001C608B684FF4C0749BB1CD6804EB0C16A1
:1027C0002B434D6843EAC5030568AB514FF4C27310
:1027D000066803EB0C130D69F550097D012909D03A
:1027E0000DE00D88CB6804EB0C1643EA45530568F1
:1027F000AB51EBE70168CD5845F48075CD501179A8
:10280000D379557941EA036193791B0443EA05239F
:1028100019434FF4C675036805EB0C15595111782F
:10282000D37841EA0361937852781B0443EA022289
:1028300011434FF4C473026803EB0C13D1500068CA
:1028400004EB0C11425842F00102425070BC0020CF
:102850007047416A41F40011416270BC0120704729
:1028600090F82020012A07D0022A05D0416A41F4BD
:1028700080214162012070474248D0F8002242F096
:102880000102C0F80022D0F8002222F47C52C0F8E5
:102890000022D0F800224B6A42EA0322C0F800224C
:1028A0000A7D012302F01F0203FA02F2D0F81C3263
:1028B0009343C0F81C32CB69D3B9D0F80C329343A0
:1028C000C0F80C32B1F80CC04B686CF31F43D1F860
:1028D00014C000EBCC0CCCF84032B1F808C00B6847
:1028E0006CF31F43D1F814C000EBCC0CCCF844328D
:1028F000CB69012B1AD1D0F80C321343C0F80C323B
:10290000B1F800C04B686CF31F43D1F814C000EB62
:10291000CC0CCCF84032B1F808C0CB686CF31F4344
:10292000D1F814C000EBCC0CCCF844328B697BB1ED
:10293000D0F804321343C0F804320B6973B1D0F8F5
:1029400014321343C0F81432096A01290CD010E084
:10295000D0F804329343C0F80432EEE7D0F81432D2
:102960009343C0F81432EFE7D0F81C121143C0F8BB
:102970001C12D0F8001221F00101C0F80012002052
:102980007047000000640040704710B490F820C009
:10299000BCF1010F09D0BCF1020F06D0416A41F42D
:1029A0008021416210BC0120704739B1D0F800C0CD
:1029B000DCF810C01CF0030F7DD006E0D0F800C09A
:1029C000DCF80CC01CF0030F7BD04FF4D87C0468FB
:1029D0000CEB011C54F80C4004F004049460002C2F
:1029E0007DD0046854F80C40E4085460046854F83E
:1029F0000CC00CF0020CC2F80CC04FF4DA7C046876
:102A00000CEB011C54F80C4004F00F041461046832
:102A100054F80C40C4F307249461046854F80CC0C3
:102A20004FEA1C4CC2F814C04FF4DC72D0F800C05E
:102A300002EB01125CF802C083F800C0D0F800C0BD
:102A40005CF802C04FEA1C2C83F801C0D0F800C02B
:102A50005CF802C04FEA1C4C83F802C0D0F800C0FA
:102A60005CF80220120EDA704FF4DE72D0F800C06B
:102A700002EB01125CF802C083F804C0D0F800C079
:102A80005CF802C04FEA1C2C83F805C0D0F800C0E7
:102A90005CF802C04FEA1C4C83F806C0D0F800C0B6
:102AA0005CF80220120EDA71F9B10068016941F098
:102AB0002001016102E00BE003E010E010BC002007
:102AC0007047416A41F40011416210BC0120704717
:102AD000416A41F40011416210BC01207047046852
:102AE00054F80C40640D146080E70068C16841F040
:102AF0002001C160DEE70246002092F82010012983
:102B000001D002290FD111688A6812F0806F00D0BD
:102B100001208A6812F0006F00D0401C896811F013
:102B2000805F00D0401C70472DE9F05F054600240F
:102B300028684669D0F804908768D0F80CA0D0F8CF
:102B400010B0D0F8188016F0010F54D017F0010F14
:102B500017D00121816017F0020F03D0284600F042
:102B600021FC0EE017F0040F02D04FF4006408E0DF
:102B700017F0080F02D04FF4805402E0284600F00E
:102B800010FC17F4807F19D029684FF4807088609A
:102B900017F4007F03D0284600F006FC0EE017F47F
:102BA000806F02D044F4005408E017F4006F02D0A4
:102BB00044F4804402E0284600F0F5FB17F4803F1F
:102BC00019D029684FF48030886017F4003F03D093
:102BD000284600F0EBFB0EE017F4802F02D044F4FF
:102BE000004408E017F4002F02D044F4803402E0DF
:102BF000284600F0DAFB16F0080F07D01AF0100F85
:102C000004D044F4007429681020C86016F0040F42
:102C10004FF0080707D01AF0080F04D02868C760E3
:102C2000284600F011FA16F0020F07D02868C06895
:102C300010F0030F02D0284600F008FA16F0400FFB
:102C400007D01BF0100F04D044F4806429681020D2
:102C5000086116F0200F07D01BF0080F04D0286879
:102C60000761284600F068FB16F0100F07D02868AF
:102C7000006910F0030F02D0284600F05EFB16F446
:102C8000003F08D019F0100F05D0296810204860C7
:102C9000284600F053FB16F4803F07D019F0080FC8
:102CA00004D028684760284600F081FB16F4004FE6
:102CB0004AD019F0040F44D016F4807F04D018F0E5
:102CC000010F01D044F0010416F4007F04D018F085
:102CD000020F01D044F0020416F4806F04D018F003
:102CE000040F01D044F0040416F4006F29D018F04A
:102CF000700F26D008F07000402815D006DC102890
:102D000009D020280AD0302816D10AE050280ED049
:102D1000602811D10EE044F008040DE044F01004E6
:102D20000AE044F0200407E044F0400404E044F0EA
:102D3000800401E044F480742868816921F0700106
:102D40008161296804204860002C05D0686A20430E
:102D500068622846FFF718FEBDE8F09F70B504468C
:102D6000002C03D094F8200010B104E0012070BDC5
:102D7000204600F0A7F82068016841F001010160D9
:102D800001F040FC0546206840684FF0050610F051
:102D9000010F11D101F036FC401B0A2807D9606AE7
:102DA00040F40030606284F82060012070BD20682B
:102DB000406810F0010FEDD02068016821F0020199
:102DC000016001F01FFC05462068406810F0020F0A
:102DD00011D001F017FC401B0A2807D9606A40F4A3
:102DE0000030606284F82060012070BD2068406877
:102DF00010F0020FEDD1207E01283FD0206801683D
:102E000021F080010160607E01283DD020680168CA
:102E100021F040010160A07E01283BD020680168BC
:102E200021F020010160E07E012839D0206801688E
:102E300041F010010160207F012837D0206801682F
:102E400021F008010160607F012835D02068016809
:102E500021F004010160E168A0686269084321690A
:102E6000114308436168491E08432168C861002076
:102E70006062012084F82000002070BD2068016895
:102E800041F080010160BEE72068016841F0400127
:102E90000160C0E72068016841F020010160C2E7DD
:102EA0002068016821F010010160C4E72068016812
:102EB00041F008010160C6E72068016841F00401A3
:102EC0000160C8E710B586B00446142101A8FDF7DB
:102ED00021FA57492068884249D156480068401C69
:102EE000544908600846006801280FD100BF00203F
:102EF00000905148006840F000704F490860084653
:102F0000006800F00070009000BF00BF00BF00200C
:102F1000009049481038006840F0080046491039D0
:102F200008600846006800F00800009000BF00BF7D
:102F300003200190022002900020039003200490BF
:102F40000920059001A93D4801F04CFA0022052115
:102F5000132001F04BFC132001F03AFC0022052164
:102F6000142001F043FC142001F032FC5DE03449F0
:102F70002068884259D100BF002000902E48006888
:102F800040F080602C4908600846006800F08060CE
:102F9000009000BF00BF27480068401C254908601A
:102FA0000846006801280FD100BF00200090224889
:102FB000006840F00070204908600846006800F092
:102FC0000070009000BF00BF00BF002000901A48B2
:102FD0001038006840F002001749103908600846B0
:102FE000006800F00200009000BF00BF4FF44050A6
:102FF00001900220029000200390032004900920F9
:10300000059001A90F4801F0EDF9002205213F20AC
:1030100001F0ECFB3F2001F0DBFB0022052140200A
:1030200001F0E4FB402001F0D3FB06B010BD00002E
:1030300000640040D402002040380240000C0240EE
:1030400000680040000402407047000010B58AB0DC
:103050000446AA49206888427DD108AB01AA002114
:103060002046FFF792FC0198A0F20120062815D215
:10307000DFE800F0031528C75583A14890F8280021
:10308000401CC1B29E4880F828109DF823009DF88E
:10309000221040EA012000B29A490882B1E0984823
:1030A00090F82900401CC1B2954880F829109DF87D
:1030B00023009DF8221040EA012001B29148A0F8B7
:1030C00004119EE08E4890F82100401CC1B28C484B
:1030D00080F821109DF821009DF8202040EA02216F
:1030E0004FF480528848FEF768FE87494868C11748
:1030F00000EBD141844A126802EB613100EE101AF4
:10310000B8EEC00A804981ED030A9DF823009DF8BE
:10311000221040EA012000B27B49088271E0784821
:1031200090F82400401CC1B2754880F824109DF826
:1031300021009DF8202040EA02214FF4805273487C
:10314000FEF73BFE7248D0F8F8017149D1F8F4114E
:103150004FF4005200E055E002FB010000B26C4960
:10316000A1F808029DF823009DF8221040EA0120F2
:1031700000B26749A1F8180243E0614890F82500C1
:10318000401CC1B25E4880F825109DF821009DF8D2
:10319000202040EA02214FF480525E48FEF70DFEE7
:1031A0005B48D0F82C14D0F828044FF4005202FBEE
:1031B000001001B25648A0F83C14D0F82C14D0F8F6
:1031C000280402FB0010642148435149C1F840041F
:1031D0009DF823009DF8221040EA012001B24C48DE
:1031E000A0F85414B0F95414C0F858149DF82500F0
:1031F0009DF8241040EA012001B24548A0F85C1473
:1032000000BF00BF44492068884274D108AB01AABE
:1032100000212046FFF7B9FB0198A0F20320002807
:1032200068D1374890F82800401CC1B2344880F873
:1032300028109DF82000394908729DF82100487235
:103240009DF823009DF8221040EA012000EE100AAC
:10325000B8EEC00A324880ED000A9DF825009DF8BE
:10326000241040EA012000EE100AB8EEC00A2D48F2
:1032700080ED000A2A4890ED000ADFED2B0AB4EE3B
:10328000E00AF1EE10FA07DD90ED000ADFED270A03
:1032900030EE600A80ED000A224890ED000ADFED72
:1032A000220AB4EEE00AF1EE10FA07DD90ED000A12
:1032B000DFED1E0A30EE600A80ED000A184890ED3E
:1032C000000ABDEEC00A10EE100A00B213490880D1
:1032D000144890ED000ABDEEC00A10EE100A00B2CC
:1032E00048809DF82600124908709DF82700114972
:1032F000087000BF00BF0AB010BD000000640040AD
:10330000A0160020D80B0020E40A0020640800204A
:1033100070060020980A0020006800403C0600204B
:10332000CC020020D002002000402644000080474C
:10333000DE020020DF02002070477047704770B542
:10334000044694F82000012805D0606A40F400206B
:103350006062012070BD022084F8200020680168AE
:1033600021F00101016001F04DF905462068406837
:1033700010F0010F12D001F045F9401B0A2808D9BE
:10338000606A40F400306062052084F8200001206B
:1033900070BD2068406810F0010FECD10020606221
:1033A00070BD7047704770477047704770477047EF
:1033B0002DE9F84F0446DDF828C000200090A068F1
:1033C000802818D0E06BE0B1606CD0B1E06CC0B187
:1033D00094F83400012819D0012084F8340094F8BE
:1033E00035500020012D14D084F8340002200090C4
:1033F0000098BDE8F88F4FF4807060650120BDE84B
:10340000F88F402060650120BDE8F88F0220BDE8FC
:10341000F88F022584F8355060652068056845F40A
:10342000802505602068036163462046FEF755FD50
:10343000DFF8D0E32168F448F44AF54BDFF8D4C351
:10344000F54DF64EF64FDFF8DC83DFF8DC93DFF85E
:10345000DCA3DFF8DCB3714540D9814201D12021E2
:1034600037E0914201D1202133E0994201D120215E
:103470002FE0614501D120212BE0A94202D14FF478
:10348000006126E0B14202D14FF4006121E0B9426F
:1034900002D14FF400611CE0414502D14FF40061BC
:1034A00017E0494502D14FF4001112E0514502D115
:1034B0004FF400110DE0594502D14FF4001108E01E
:1034C000DFF870E3714502D14FF4001101E04FF0D5
:1034D0000061DFF864E3CEF80010C9E0DFF85CE3D8
:1034E000714540D9814201D1202137E0914201D17B
:1034F000202133E0994201D120212FE0614501D103
:1035000020212BE0A94202D14FF4006126E0B14214
:1035100002D14FF4006121E0B94202D14FF40061C1
:103520001CE0414502D14FF4006117E0494502D14A
:103530004FF4001112E0514502D14FF400110DE09B
:10354000594502D14FF4001108E0DFF8E8E2714577
:1035500002D14FF4001101E04FF00061DFF8E0E22A
:10356000CEF8001084E0DFF8DCE2714540D98142FA
:1035700001D1202137E0914201D1202133E099424D
:1035800001D120212FE0614501D120212BE0A9426A
:1035900002D14FF4006126E0B14202D14FF4006144
:1035A00021E0B94202D14FF400611CE0414502D153
:1035B0004FF4006117E0494502D14FF4001112E0C9
:1035C000514502D14FF400110DE0594502D14FF49D
:1035D000001108E0DFF85CE2714502D14FF4001100
:1035E00001E04FF00061DFF860E2CEF80C103FE040
:1035F000814201D1202137E0914201D1202133E0E5
:10360000994201D120212FE0614501D120212BE0F9
:10361000A94202D14FF4006126E0B14202D14FF439
:10362000006121E0B94202D14FF400611CE0414544
:1036300002D14FF4006117E0494502D14FF4001167
:1036400012E0514502D14FF400110DE0594502D16D
:103650004FF4001108E0DFF8DCE1714502D14FF4CE
:10366000001101E04FF00061DFF8DCE1CEF8081056
:10367000DFF890E12168714540D9814201D11021E4
:1036800037E0914201D1102133E0994201D110215C
:103690002FE0614501D110212BE0A94202D14FF466
:1036A000806126E0B14202D14FF4806121E0B9424D
:1036B00002D14FF480611CE0414502D14FF480619A
:1036C00017E0494502D14FF4801112E0514502D173
:1036D0004FF480110DE0594502D14FF4801108E0FC
:1036E000DFF850E1714502D14FF4801101E04FF055
:1036F0008061DFF844E1CEF80010EEE0DFF83CE155
:10370000714540D9814201D1102137E0914201D168
:10371000102133E0994201D110212FE0614501D100
:1037200010212BE0A94202D14FF4806126E0B14282
:1037300002D14FF4806121E0B94202D14FF480619F
:103740001CE0414502D14FF4806117E0494502D1A8
:103750004FF4801112E0514502D14FF480110DE079
:10376000594502D14FF4801108E0DFF8C8E07145F7
:1037700002D14FF4801101E04FF08061DFF8C0E02A
:10378000CEF80010A9E0DFF8BCE0714565D98142B0
:1037900001D110215CE0914201D1102158E0994201
:1037A00001D1102154E0614501D1102150E0A9421E
:1037B00002D14FF480614BE0B14202D14FF48061FD
:1037C00046E0B94202D14FF4806141E0414502D167
:1037D0004FF480613CE0494502D14FF4801137E05D
:1037E000514502D14FF4801132E0594502D14FF4D6
:1037F00080112DE0DFF83CE0714527D14FF48011B6
:1038000026E000005864024010600240106402404C
:1038100070600240706402402860024028640240E8
:103820008860024088640240406002404064024078
:10383000A0600240A06402400C640240B8600240F4
:103840000864024058600240006002404FF080610E
:10385000DFF8E4E6CEF80C103FE0814201D1102100
:1038600037E0914201D1102133E0994201D110217A
:103870002FE0614501D110212BE0A94202D14FF484
:10388000806126E0B14202D14FF4806121E0B9426B
:1038900002D14FF480611CE0414502D14FF48061B8
:1038A00017E0494502D14FF4801112E0514502D191
:1038B0004FF480110DE0594502D14FF4801108E01A
:1038C000DFF878E6714502D14FF4801101E04FF046
:1038D0008061DFF864E6CEF80810DFF864E621685E
:1038E000714540D9814201D1082137E0914201D18F
:1038F000082133E0994201D108212FE0614501D12F
:1039000008212BE0A94202D14FF4007126E0B14218
:1039100002D14FF4007121E0B94202D14FF400719D
:103920001CE0414502D14FF4007117E0494502D136
:103930004FF4002112E0514502D14FF400210DE077
:10394000594502D14FF4002108E0DFF8F0E5714558
:1039500002D14FF4002101E04FF00071DFF8E4E5FF
:10396000CEF80010C9E0DFF8E0E5714540D98142AA
:1039700001D1082137E0914201D1082133E0994279
:1039800001D108212FE0614501D108212BE0A94296
:1039900002D14FF4007126E0B14202D14FF4007120
:1039A00021E0B94202D14FF400711CE0414502D13F
:1039B0004FF4007117E0494502D14FF4002112E0A5
:1039C000514502D14FF400210DE0594502D14FF489
:1039D000002108E0DFF864E5714502D14FF40021D1
:1039E00001E04FF00071DFF864E5CEF8001084E0EC
:1039F000DFF85CE5714540D9814201D1082137E00B
:103A0000914201D1082133E0994201D108212FE0F0
:103A1000614501D108212BE0A94202D14FF4007188
:103A200026E0B14202D14FF4007121E0B94202D147
:103A30004FF400711CE0414502D14FF4007117E0D2
:103A4000494502D14FF4002112E0514502D14FF413
:103A500000210DE0594502D14FF4002108E0DFF8C4
:103A6000DCE4714502D14FF4002101E04FF0007118
:103A7000DFF8C4E4CEF80C103FE0814201D1082108
:103A800037E0914201D1082133E0994201D1082168
:103A90002FE0614501D108212BE0A94202D14FF46A
:103AA000007126E0B14202D14FF4007121E0B94229
:103AB00002D14FF400711CE0414502D14FF4007176
:103AC00017E0494502D14FF4002112E0514502D1DF
:103AD0004FF400210DE0594502D14FF4002108E0D8
:103AE000DFF858E4714502D14FF4002101E04FF0B6
:103AF0000071DFF844E4CEF80810DFF844E42168F0
:103B0000714540D9814201D1042137E0914201D170
:103B1000042133E0994201D104212FE0614501D114
:103B200004212BE0A94202D14FF4807126E0B1427A
:103B300002D14FF4807121E0B94202D14FF480717B
:103B40001CE0414502D14FF4807117E0494502D194
:103B50004FF4802112E0514502D14FF480210DE055
:103B6000594502D14FF4802108E0DFF8D0E37145D8
:103B700002D14FF4802101E04FF08071DFF8C4E3FF
:103B8000CEF80010C9E0DFF8C0E3714540D98142AA
:103B900001D1042137E0914201D1042133E099425F
:103BA00001D104212FE0614501D104212BE0A9427C
:103BB00002D14FF4807126E0B14202D14FF48071FE
:103BC00021E0B94202D14FF480711CE0414502D19D
:103BD0004FF4807117E0494502D14FF4802112E083
:103BE000514502D14FF480210DE0594502D14FF4E7
:103BF000802108E0DFF844E3714502D14FF48021D1
:103C000001E04FF08071DFF844E3CEF8001084E06B
:103C1000DFF83CE3714540D9814201D1042137E00E
:103C2000914201D1042133E0994201D104212FE0D6
:103C3000614501D104212BE0A94202D14FF48071EA
:103C400026E0B14202D14FF4807121E0B94202D1A5
:103C50004FF480711CE0414502D14FF4807117E0B0
:103C6000494502D14FF4802112E0514502D14FF471
:103C700080210DE0594502D14FF4802108E0DFF8A2
:103C8000BCE2714502D14FF4802101E04FF0807118
:103C9000DFF8A4E2CEF80C103FE0814201D104210C
:103CA00037E0914201D1042133E0994201D104214E
:103CB0002FE0614501D104212BE0A94202D14FF44C
:103CC000807126E0B14202D14FF4807121E0B94207
:103CD00002D14FF480711CE0414502D14FF4807154
:103CE00017E0494502D14FF4802112E0514502D13D
:103CF0004FF480210DE0594502D14FF4802108E0B6
:103D0000DFF838E2714502D14FF4802101E04FF035
:103D10008071DFF824E2CEF80810DFF824E2216891
:103D2000714539D9814201D1012032E0914201D15E
:103D300001202EE0994201D101202AE0614501D104
:103D4000012026E0A94201D1402022E0B14201D168
:103D500040201EE0B94201D140201AE0414501D186
:103D6000402016E0494502D14FF4803011E0514522
:103D700002D14FF480300CE0594502D14FF480302D
:103D800007E06E48814202D14FF4803001E04FF4E9
:103D900080006C490860B4E0DFF8ACE1714539D9C6
:103DA000814201D1012032E0914201D101202EE077
:103DB000994201D101202AE0614501D1012026E08C
:103DC000A94201D1402022E0B14201D140201EE0B1
:103DD000B94201D140201AE0414501D1402016E00E
:103DE000494502D14FF4803011E0514502D14FF4E2
:103DF00080300CE0594502D14FF4803007E04F4845
:103E0000814202D14FF4803001E04FF480004F49ED
:103E1000086076E0DFF838E1714539D9814201D197
:103E2000012032E0914201D101202EE0994201D1DE
:103E300001202AE0614501D1012026E0A94201D1FB
:103E4000402022E0B14201D140201EE0B94201D120
:103E500040201AE0414501D1402016E0494502D1F9
:103E60004FF4803011E0514502D14FF480300CE026
:103E7000594502D14FF4803007E03048814202D1E9
:103E80004FF4803001E04FF480002B49C86038E0E7
:103E9000814201D1012032E0914201D101202EE086
:103EA000994201D101202AE0614501D1012026E09B
:103EB000A94201D1402022E0B14201D140201EE0C0
:103EC000B94201D140201AE0414501D1402016E01D
:103ED000494502D14FF4803011E0514502D14FF4F1
:103EE00080300CE0594502D14FF4803007E0134890
:103EF000814202D14FF4803001E04FF480000E493E
:103F000088602068016841F01601016020684169FD
:103F100041F080014161206C08B9A06C20B120689B
:103F2000016841F0080101602068016841F0010169
:103F30000160FFF75DBA000000600240A06402402B
:103F4000586402400C640240B860024008640240B9
:103F5000586002402DE9F0410446A66D00F052FB86
:103F6000054694F835000027022806D080206065B9
:103F700084F834700120BDE8F0812068016821F0E8
:103F8000160101602068416921F080014161206CC7
:103F900008B9A06C20B12068016821F00801016017
:103FA0002068016821F0010101602068006810F0BC
:103FB000010F12D000F026FB401B052808D9202055
:103FC0006065032084F8350084F83470BDE8F08122
:103FD0002068006810F0010FECD194F85C003F21DC
:103FE00001FA00F0B060012084F8350084F83470E4
:103FF0000020BDE8F08190F83510022903D080211F
:10400000416501207047052180F83510006801687E
:1040100021F0010101600020704700002DE9F84304
:1040200004464FF00008CDF8008076484FF4165152
:104030000068B0FBF1F7A56D2E6894F85C000821CC
:1040400001FA00F0304211D02068026812F0040F2B
:104050000CD0026822F00402026094F85C0001FABD
:1040600000F0A860606D40F00100606594F85C00AD
:104070004FF0010909FA00F0304209D0216849697E
:1040800011F0800F04D0A860606D40F00200606500
:1040900094F85C1004208840304209D021680968F7
:1040A00011F0020F04D0A860606D40F0040060655C
:1040B00094F85C1010208840304224D021680968B0
:1040C00011F0080F1FD0A8602068016811F4802F3C
:1040D0000DD0006810F4002F04D0A16C99B12046D7
:1040E000884710E0216C71B1204688470BE00168D9
:1040F00011F4807F03D1016821F008010160216C77
:1041000009B12046884794F85C102020884030424E
:1041100051D02168096811F0100F4CD0A86094F8B4
:10412000350005280DD02068016811F4802F32D0A9
:10413000006810F4002F29D0E16B59B3204688475E
:1041400039E02068016821F01601016020684169AA
:1041500021F080014161206C08B9A06C20B1206879
:10416000016821F00801016094F85C003F2101FA28
:1041700000F0A86084F8359084F83480216D00291F
:104180003ED001B02046BDE8F0430847616C09B15C
:10419000204688470FE0016811F4807F07D101684D
:1041A00021F01001016084F8359084F83480E16BCF
:1041B00009B120468847606D002821D0606D10F05D
:1041C000010F15D0052084F835002068016821F022
:1041D000010101600098401C0090B84204D820689A
:1041E000006810F0010FF5D184F8359084F8348020
:1041F000E16C002904D001B02046BDE8F043084737
:10420000BDE8F883580300202DE9F041044600F092
:10421000F9F90546DCB1022084F83500002684F85F
:1042200034602068016821F00101016020680068A5
:1042300010F0010F13D000F0E5F9401B052809D953
:1042400020206065032084F83500BDE8F08101205E
:10425000BDE8F0812068006810F0010FEBD1216803
:104260000868234A1040A3686268D4F810C01A4353
:10427000E36843EA0C031A4363691A43A3691A43C8
:10428000E3691A43236A1A431043626A042A03D17A
:10429000236BE26A1A43104308602068406920F0EB
:1042A0000701606A40EA0105012704280ED1A06ACF
:1042B0000543E06A50B12046FDF7D0FD30B1402003
:1042C000606584F835700120BDE8F08120684561A3
:1042D0002046FDF7A9FD94F85C103F2202FA01F197
:1042E0008160666584F835700020BDE8F0810000CB
:1042F0003F8010F0002390F834C0BCF1010F0ED0C5
:104300004FF0010C80F834C090F835C0BCF1010FBB
:1043100007D00123002180F834101846704702208E
:104320007047062910D2DFE801F0030507090B0DDD
:10433000C263EFE70264EDE74264EBE78264E9E71A
:10434000C264E7E70265E5E70123E3E770B50446E9
:104350000025A66D94F8340001280DD0012084F8C2
:10436000340094F835C00020BCF1010F06D084F869
:1043700034000225284670BD022070BD4FF0020CAB
:1043800084F835C060652046FDF7B8FD94F85C0000
:104390003F2101FA00F0B0602068016841F0160189
:1043A0000160206C20B12068016841F008010160C3
:1043B0002068016841F001010160DBE770B5044647
:1043C00000F020F90546B4F1FF3F02D00448007820
:1043D000044400F017F9401BA042FAD370BD00005E
:1043E0005C0300202DE9F84F0022DFF8FCA1DFF884
:1043F000F4914FF0010E03274FF00F08AAF1040BC0
:104400000EFA02FC0B6803EA0C0363457ED10C79BB
:1044100004F00304012C01D0022C14D1856854004F
:1044200007FA04F6B543CE6806FA04F42C43846018
:10443000446824EA0C0C0C79C4F30014944044EA58
:104440000C0CC0F804C0D1F804C037EA0C0C0CD036
:10445000C4684FEA420C07FA0CF5AC438D6805FAC4
:104460000CFC4CEA040CC0F80CC091F804C00CF031
:10447000030CBCF1020F12D14FEAD20C00EB8C04FA
:10448000256A4FEA427C4FEADC6C08FA0CF6B54329
:104490000E6906FA0CFC4CEA050CC4F820C004684E
:1044A0004FEA420C07FA0CF5AC430D7905F0030511
:1044B00005FA0CFC4CEA040CC0F800C0D1F804C0AA
:1044C0001CF4403F6FD0D9F800C04CF4804CC9F8C0
:1044D00000C0D9F800C00CF4804CCDF800C022F028
:1044E000030C0CF1804505F59835D5F808C89407FC
:1044F000240F08FA04F62CEA0606A0F1804CBCF55D
:10450000003C56D0BCF5806C56D000E04BE0BCF5CA
:10451000806C54D0BCF5806C54D0BCF5806C54D009
:10452000BCF5806C54D0BCF5806C54D0BCF5806C6C
:1045300054D04FF0080C0CFA04FC4CEA060CC5F8F9
:1045400008C8DAF800C02CEA030C4C6814F4801F89
:1045500001D04CEA030CCAF800C0244CD4F800C0C7
:104560002CEA030C4D6815F4001F01D04CEA030C33
:10457000C4F800C0DBF800C02CEA030C4C6814F44B
:10458000003F01D04CEA030CCBF800C0184CD4F823
:1045900000C02CEA030C4D6815F4803F01D04CEAB2
:1045A000030CC4F800C0521C102AFFF429AFBDE868
:1045B000F88F4FF0000CBEE74FF0010CBBE74FF057
:1045C000020CB8E74FF0030CB5E74FF0040CB2E76C
:1045D0004FF0050CAFE74FF0060CACE74FF0070CBF
:1045E000A9E7000044380240083C01400C3C01406F
:1045F000003C0140002A01D08161704709048161BB
:104600007047000001488068704700005C0300208C
:1046100070B50446002C21D021684CF6CC400860CF
:10462000216845F25550086021686068486021683B
:10463000A0688860FFF7E6FF05462068C06810F0B4
:10464000030F12D0FFF7DEFF401B312808D9206886
:10465000C06810F0030F03D0032070BD012070BDAF
:104660002068C06810F0030FECD121684AF6AA2038
:104670000860002070BD00684AF6AA210160002091
:1046800070470000024881680278114481607047D9
:104690005C03002010B50B48016841F40071016013
:1046A000016841F480610160016841F4807101603A
:1046B000032000F0CFF8002000F006F800F05EF8CC
:1046C000002010BD003C02402DE9F04188B00446B6
:1046D0000027B84600BF002001902348006840F042
:1046E0001000214908600846006800F010000190A1
:1046F00000BF00BF02A903A800F024FF069F1FB956
:1047000000F044FF054602E000F040FF4500174876
:10471000B5FBF0F0A0F1010815481649086040F219
:10472000E7311448C160C0F8048000210161816054
:10473000816101F0D9FB064696B90E4801F08CFC68
:1047400006466EB9362000F043F8102C07D200223E
:104750002146362000F04AF80748046000E00126B0
:10476000304608B0BDE8F0814038024040420F00BA
:1047700000100040904000206003002008B500BFFA
:10478000002000901148006840F480400F49086004
:104790000846006800F48040009000BF00BF00BFE2
:1047A00000200090081F006840F08050091F08603A
:1047B0000846006800F08050009000BF00BF002253
:1047C0000F21901E00F012F808BD0000443802408E
:1047D00000280ADB00F01F01012202FA01F1400962
:1047E000800000F1E020C0F80011704710B4184BB1
:1047F0001B68C3F30223C3F1070CBCF1040F01D9FA
:104800004FF0040C1C1D072C01D2002300E0DB1E1E
:10481000012404FA0CFCACF1010C0CEA01019940F2
:1048200004FA03F35B1E1A401143002806DB00F173
:10483000E020090180F8001410BC704700F00F0060
:1048400000F1E020090180F8141D10BC7047000041
:104850000CED00E000F00700064A11684FF6FF0378
:10486000194041EA002040F0FD7040F08060106087
:10487000704700000CED00E07047006841620020C6
:10488000704730B40368586A00291BD0D3F828C099
:1048900000EB1C4C00200129A1F101014FF48274AE
:1048A00008D004EB80055D590CEB154C401CC0B2E0
:1048B0008842F6D304EB81014CEA0240585030BCE8
:1048C0000020704740EA02409862F8E710B50446BD
:1048D000D4F8080508F062FC10BD70B504460D461A
:1048E00005EBC50304F13C0101EB83010A6929468C
:1048F000D4F8080508F07CFB70BD70B504460D4681
:1049000005EBC50304F51F7101EB83010A69294614
:10491000D4F8080508F0DAFB70BD10B50446D4F8E9
:10492000080508F03DFC10BD11F0800F01F00F01EB
:1049300001EBC10100EB810101D03C3101E001F547
:104940001F71006809F099BC70B5044611F0800F22
:1049500001F00F0000EBC00104EB81014FF00102F8
:104960004FF0000502D03C314A7002E001F51F71A2
:104970004D70087094F8BC04012808D084F8BC2459
:10498000206809F0F5F884F8BC54002070BD0220BE
:1049900070BD70B5044601F00F026068824201D913
:1049A000012070BD01F00F0000EBC00011F0800F7E
:1049B00004EB80004FF001034FF0000503D000F13D
:1049C0003C014B7002E000F51F714D708D700A7054
:1049D00094F8BC04012808D084F8BC34206809F09D
:1049E000DBFA84F8BC54002070BD022070BD01F0D9
:1049F0000F0101EBC10100EB8100D0F89C02704770
:104A000070B5044611F0800F01F00F0000EBC001FB
:104A100004EB81014FF0010C4FF0000503D03C3155
:104A200081F801C002E001F51F714D700870CA6085
:104A30000B714A7802B10881022B00D14D7194F8B4
:104A4000BC04012808D084F8BCC4206808F0CCFF5E
:104A5000284684F8BC5470BD022070BD10B50C46C9
:104A600004F00F0C0CEBCC0100EB810101F51F7180
:104A70000A618B6100230B624B7081F800C00369EF
:104A8000012B00D14A6114F00F0F05D0027C0068A1
:104A900009F0DDFA002010BD027C006809F0B4F9CD
:104AA000F8E770B504460D46616805F00F008842CE
:104AB00001D9012070BD15F0800F4FF000064FF0B6
:104AC000010206D000EBC00104EB81013C314A70C9
:104AD00006E005EBC50104EB810101F51F714E7085
:104AE0008A70087094F8BC04012808D084F8BC24AB
:104AF000206809F07DFA15F00F0F02D007E00220C0
:104B000070BD217C04F2C442206809F015FA84F8D3
:104B1000BC64002070BD10B50C4604F00F0C0CEB0B
:104B2000CC0100EB81013C310A618B6100230B62F7
:104B300001234B7081F800C00369012B00D14A6149
:104B400014F00F0F05D0027C006809F080FA0020F5
:104B500010BD027C006809F057F9F8E72DE9F05F15
:104B600004462568284609F04BFC00287ED12068C1
:104B700009F072FC002879D0D5F80808C0F30D20A0
:104B8000C4F8FC04206809F067FC10F0020F04D0A0
:104B90002068416901F002014161206809F05CFC74
:104BA00010F0100F36D02068816921F0100181616A
:104BB0002F6A07F00F0000EBC00004EB800000F547
:104BC0001F76C7F34340022802D0062812D01CE00B
:104BD00047F6F070074218D0C7F30A121746284666
:104BE000316909F03DFC306938443061306A38443D
:104BF00030620AE0082204F2C441284609F030FC81
:104C0000306AC7F30A11084430622068816941F0B4
:104C100010018161206809F01FFC10F4002F4FF093
:104C2000100B4FF0000A4FF0010967D000262068F2
:104C300009F0F1FB80465FEA08005FD018F0010F31
:104C400056D0F1B2206809F0FFFB074617F0010FBC
:104C500007D005EB4610C0F8089B3146204605F00A
:104C6000C1FF17F0080F0AD0082000E01FE205EB93
:104C70004611C1F8080B3146204605F08FFF17F0AA
:104C8000100F03D005EB4610C0F808BB17F0020F59
:104C90001DD0686910F0800F05D0D5F8040840F4E5
:104CA0008061C5F8041806EBC60004EB800000F52F
:104CB0001F70C178012905D180F803A0F1B2204608
:104CC00000F007FA05EB46110220C1F8080B17F0B7
:104CD000200F04D005EB46112020C1F8080B17F473
:104CE000005F05D005EB46114FF40050C1F8080BEA
:104CF000761C4FEA5808B8F1000F9FD1206809F0E0
:104D0000ABFB10F4802F74D0206809F07DFB0746C0
:104D10000026002F6DD04FF0020B17F0010F64D06A
:104D2000F1B2206809F07EFB804618F0010F24D014
:104D300006F00F0009FA00F0D5F834188143C5F8E1
:104D4000341805EB4610C0F808992069012810D1E5
:104D500006EBC60004EB8000826CC16C1144C16498
:104D60003EB9606D28B904F2C4420121206809F0FF
:104D7000E3F8F1B22046FFF7B0FD18F0080F04D0B9
:104D800005EB46110820C1F8080918F0100F04D0EF
:104D900005EB46111020C1F8080918F0400F04D0A7
:104DA00005EB46114020C1F8080918F0020F15D094
:104DB0003146284609F0E8FA06EBC60004EB80000D
:104DC0003C30C178012905D180F803A0F1B220461A
:104DD00000F076F905EB4610C0F808B918F0800F1E
:104DE00003D03146204605F071FF761C7F08002F66
:104DF00093D1206809F030FB10F0004F11D0D5F8A6
:104E0000040820F00101C5F8041894F8F4040128FE
:104E100061D0204600F072FA2068416901F000413B
:104E20004161206809F018FB10F4006F0CD0D5F830
:104E3000080810F0010F02D0204600F0ABFA2068FD
:104E4000416901F400614161206809F005FB10F43B
:104E5000805F65D0D5F8040820F00101C5F804187A
:104E60001021206809F090FA0021606800281DD9FF
:104E70004FF67F3205EB4110C0F80829D0F8003911
:104E800023F40013C0F80039C0F8082BD0F8003B19
:104E900023F40013C0F8003BD0F8003B43F000635C
:104EA000C0F8003B491C60688842E3D8D5F81C086C
:104EB00040F00111C5F81C18206B98B1D5F8840892
:104EC00040F00B01C5F88418D5F8440840F00B01F8
:104ED000C5F8441813E084F8F4A400212046FFF735
:104EE000CBFC99E7D5F8140842F22B010143C5F831
:104EF0001418D5F8100840F00B01C5F81018D5F8B3
:104F0000000820F4FE61C5F80018217C04F2C442B8
:104F1000206809F011F82068416901F4805141616D
:104F2000206809F099FA10F4005F16D0206808F0A4
:104F3000A9FD206809F054FAE06000F021FB236825
:104F40000146227B184609F0F7FA204600F0BEF928
:104F50002068416901F400514161206809F07CFA40
:104F600010F0080F07D0204600F0CFF92068416903
:104F700001F008014161206809F06EFA10F0800F1D
:104F800017D0A86920F08001A96101266068012876
:104F90000FD906EBC60004EB800090F87F020128D1
:104FA00003D1F1B22046FFF7BFFC761C6068B04227
:104FB000EFD8206809F050FA10F4801F23D00126A2
:104FC000606801281AD905EB4610D0F8001906EBE5
:104FD000C60004EB800090F84020012A0AD111F0AD
:104FE000004F07D080F83F90F0B240F0800120469B
:104FF000FFF79AFC761C6068B042E4D820684169EB
:1050000001F480114161206809F026FA10F4001FB4
:105010002DD001206168012924D905EB4011D1F878
:10502000001B00EBC00204EB820292F88032012BDD
:1050300014D111F0004F11D094F8FC3401F48031F8
:1050400003F00103994209D182F87F92A96941F0E6
:105050008002AA61696911F0800F2AD0401C616842
:105060008142DAD82068416901F400114161206869
:1050700009F0F2F910F0804F07D02046FFF726FC28
:105080002068416901F080414161206809F0E4F93C
:1050900010F0040F0BD02068456815F0040F02D003
:1050A0002046FFF73AFC2068416829434160BDE88B
:1050B000F09FD5F8040840F40070C5F80408D1E763
:1050C00070B504460D462946D4F8080508F0D2F814
:1050D00070BD70B504460D462946D4F8080508F0A1
:1050E000DEF870BD2DE9F0478AB00446002C05D0EB
:1050F000266894F8BD04002520B108E00AB001201C
:10510000BDE8F08784F8BC54204600F08BF80320FB
:1051100084F8BD04F06B10F4807F00D12561206815
:1051200008F06CFE04F11000D4F82C8090E80F1009
:10513000A76A666A8DE80F10CDF81C800697059661
:10514000616B206B0991089094E80F0008F0A8FCAF
:10515000022728B184F8BD740AB00120BDE8F087A9
:105160000021206809F0A0F90021606801260028CC
:1051700013D901EBC10004EB800080F83D6080F89A
:105180003C10A0F8441080F840508564C564456523
:10519000481CC1B260688842EBD8002160680028D2
:1051A00014D901EBC10004EB800080F87D5280F837
:1051B0007C1280F88052C0F88852C0F88C52C0F837
:1051C0009452481CC1B260688842EAD804F11000C9
:1051D000D4F82CA090E80F10D4F82890D4F82480AC
:1051E0008DE80F10CDF81CA0CDF81890CDF81480E4
:1051F000616B206B0991089094E80F0008F042FD64
:1052000028B184F8BD740AB00120BDE8F08784F8A5
:10521000385084F8BD64206808F026FD0AB00020EC
:10522000BDE8F08710B586B00446142101A8FBF74D
:1052300071F82068B0F1A04F42D100BF002000906B
:105240002048006840F001001E49086008460068D8
:1052500000F00100009000BF00BF4FF4C05001906B
:105260000220029000200390032004900A20059061
:1052700001A91548FFF7B6F800BF1248001D0068E5
:1052800040F080000F49091D086000BF0020009019
:105290000C481430006840F480400A49143108601A
:1052A0000846006800F48040009000BF00BF00BFC7
:1052B000002205214320FFF799FA4320FFF788FADF
:1052C00006B010BD303802400000024070B5044600
:1052D0000125E06808B9002506E0E068022801D150
:1052E000012501E0FDF749F92946D4F8080508F041
:1052F00062F8D4F8080508F017F870BD10B5044638
:10530000D4F8080508F040F810BD10B50446D4F8EC
:10531000080508F043F810BD10B5044694F8BC0425
:1053200001280BD0012084F8BC0484F838102068D0
:1053300009F0EAF8002084F8BC0410BD022010BD7A
:1053400010B5044604F2C441D4F8080508F049F841
:1053500010BD10B50446206894F8BC14012906D08D
:10536000012184F8BC14A16A012902D008E00220BE
:1053700010BDA169012903D0816B41F480318163A3
:10538000206808F0D4FF206808F060FC002084F852
:10539000BC0410BD10B50446D4F8080508F075F833
:1053A0002068D0F8000E40F001002168C1F8000E1E
:1053B000206A28B10348006840F0060001490860EF
:1053C00010BD000010ED00E02DE9F04704460D4649
:1053D000002C13D0DFF85491D9F80000EFB200F0A0
:1053E0000700A8420DD289F80070D9F8000000F03B
:1053F0000700A84205D00120BDE8F0870120BDE8E4
:10540000F08720684A4E10F0020F14D010F0040FFD
:1054100003D0306840F4E0503060207810F0080F7E
:1054200003D0306840F4604030603068A16820F0FC
:10543000F00008433060207810F0010F3ED0606823
:105440003C49012808D002280DD003280BD0096858
:1054500011F0020F28D00AE0096811F4003F06D1CC
:105460000120BDE8F087096811F0007F19D031688C
:1054700021F0030108433060FFF7C4F8804630682C
:10548000616800F00C00B0EB810F17D041F2883A50
:10549000FFF7B8F8A0EB0800504508D90320BDE895
:1054A000F0870120BDE8F0870120BDE8F087306873
:1054B000616800F00C00B0EB810FE9D1D9F8000071
:1054C00000F00700A8420AD989F80070D9F8000056
:1054D00000F00700A84202D00120BDE8F087207844
:1054E00010F0040F05D03068E16820F4E050084364
:1054F0003060207810F0080F06D03068216920F461
:10550000604040EAC100306000F060F831680A4A4B
:10551000C1F30311515CC84008490860084800689D
:10552000FFF7D2F80020BDE8F0870000003C024001
:105530000838024000380240341C0108580300209B
:10554000600300200F2202600B4A136803F003037C
:105550004360136803F0F0038360136803F4E053BF
:10556000C360126802F46042D20802610348006816
:1055700000F007000860704708380240003C024015
:1055800001480068704700005803002000B5FFF78D
:10559000F7FF04490968044AC1F38221515CC840FD
:1055A00000BD000008380240441C010800B5FFF7A8
:1055B000E7FF04490968044AC1F34231515CC8401D
:1055C00000BD000008380240441C010810B517480F
:1055D000006810F00C01164816D0164B042912D0A2
:1055E000082911D1144C216801F03F02216811F4FF
:1055F000800F0AD02068C0F38810A0FB03010023AD
:10560000FAF73EFE09E0184610BD21680023C1F3F9
:105610008811A1FB0001FAF733FE2168C1F30141B3
:10562000491C4900B0FBF1F010BD000008380240F1
:105630000024F40040787D01043802402DE9F84F41
:105640000446002C12D02078FB4E10F0010FA6F17A
:10565000040563D0301D016801F00C0104290CD051
:10566000006800F00C00082803D010E00120BDE81D
:10567000F88F306810F4800F09D0286810F4003FCC
:105680004CD06068002849D10120BDE8F88F6068DF
:10569000B0F5803F14D0B0F5A02F16D0286820F4C4
:1056A00080302860286820F480202860606810B36B
:1056B000FEF7A8FF0746286810F4003F0ED02DE043
:1056C000286840F480302860F0E7286840F48020A3
:1056D0002860286840F480302860E7E7FEF792FFF2
:1056E000C01B642802D90320BDE8F88F286810F495
:1056F000003FF3D012E0FEF785FF0746286810F45C
:10570000003F0BD0FEF77EFFC01B642802D90320A8
:10571000BDE8F88F286810F4003FF3D12078C74F18
:1057200010F0020F4FF0000957D0C548016811F082
:105730000C0F14D0006800F00C00082803D130686A
:1057400010F4800F0BD0E06880B301203860FEF7C2
:1057500059FF8046286810F0020F12D01EE028681A
:1057600010F0020F05D0E068012802D00120BDE84A
:10577000F88F2868216920F0F80040EAC10028600D
:105780002BE0FEF73FFFA0EB0800022802D9032020
:10579000BDE8F88F286810F0020FF2D02868216960
:1057A00020F0F80040EAC100286016E0FFE7C7F8E3
:1057B0000090FEF727FF8046286810F0020F0CD0FB
:1057C000FEF720FFA0EB0800022802D90320BDE865
:1057D000F88F286810F0020FF2D1207810F0080F2F
:1057E00035D09848DFF860A26169C1B1012101603C
:1057F000FEF708FF8046DAF8000010F0020F26D10D
:10580000FEF700FFA0EB0800022802D90320BDE844
:10581000F88FDAF8000010F0020FF1D017E0C0F8AE
:105820000090FEF7EFFE8046DAF8000010F0020F5D
:105830000DD0FEF7E7FEA0EB0800022802D90320F6
:10584000BDE8F88FDAF8000010F0020FF1D12078EF
:1058500010F0040F71D04FF000087C48006810F081
:10586000805F0AD17948016841F080510160006889
:1058700000F0805000904FF00108DFF8D4B1DBF861
:10588000000010F4807F1BD1DBF8000040F4807032
:10589000CBF80000FEF7B6FE8246DBF8000010F4FD
:1058A000807F0DD1FEF7AEFEA0EB0A00022802D9E0
:1058B0000320BDE8F88FDBF8000010F4807FF1D002
:1058C000A068DFF890B1012818D005281DD0DBF8BA
:1058D000000020F00100CBF80000DBF8000020F011
:1058E0000400CBF80000A06840B3FEF78BFE8246B0
:1058F000DBF8000010F0020F14D03EE0DBF80000EF
:1059000040F00100CBF80000EDE7DBF8000040F0CC
:105910000400CBF80000DBF8000040F00100CBF8F9
:105920000000E0E7FEF76EFEA0EB0A0141F28830CE
:10593000814204D90320BDE8F88F26E005E0DBF8BA
:10594000000010F0020FEDD017E0FEF75BFE82467C
:10595000DBF8000010F0020F0FD0FEF753FEA0EBB3
:105960000A0141F28830814202D90320BDE8F88F54
:10597000DBF8000010F0020FEFD1B8F1010F04D1F5
:105980003248016821F080510160A069F0B32C49D0
:1059900009684FF0FF3801F00C01082966D0022891
:1059A00010D0C7F86090FEF72DFE0446286810F06E
:1059B000007F2BD0FEF726FE001B022851D90320C2
:1059C000BDE8F88FC7F86090FEF71CFE8146286896
:1059D00010F0007F0CD0FEF715FEA0EB09000228A6
:1059E00002D90320BDE8F88F286810F0007FF2D1BB
:1059F000216AE069A26A0843616A08EB52028901E0
:105A000041EA0241084394F82C1000E055E040EAD6
:105A10000160306001203866FEF7F4FD0446286816
:105A200010F0007F49D1FEF7EDFD001B022813D9CD
:105A30000320BDE8F88F0000043802400000474210
:105A400008380240800E4742743802404038024015
:105A50000070004070380240286810F0007FE2D0EB
:105A60002BE0286810F0007FA4D126E0012822D086
:105A70003068E26900F4800191421AD1226A00F094
:105A80003F01914215D147F6C071626A0140B1EB06
:105A9000821F0ED1A26A00F4403108EB5202B1EB32
:105AA000024F06D194F82C1000F07060B0EB016F3B
:105AB00003D00120BDE70120BBE70020B9E770B5A6
:105AC0000446002C09D0606A002540B1256165615B
:105AD000A56294F8510040B10CE0012070BD6068EF
